:0E00000047C066C1FDCFFCCFFBCFFACFF9CFD2
:10000E00F8CFF7CF55C1F5CF25C1F3CFF2CFF1CF52
:10001E00F0CFEFCFEECFEDCF303132333435363740
:10002E003839414243444546006162636465666700
:10003E0068696A6B6C6D6E6F700071727374757631
:10004E007778797A303132333435002140232425C4
:10005E005E262A28295F2B3D2D7B7D3F00482041BF
:10006E002043204B2020412054204F204E002020A2
:10007E0020494E444F4E4553494120202020000038
:10008E000000F894EE27ECBBF1E0FBBFEBBFE5BF41
:10009E00F8E1F1BDE1BD8DE0A2E0BB27ED938A95BD
:1000AE00E9F780E094E0A0E6ED930197E9F7EEE83A
:1000BE00F0E085919591009761F0A591B59105902D
:1000CE001590BF01F00105900D920197E1F7FB012C
:1000DE00F0CFEFE5EDBFE4E0EEBFC0E6D1E0FAC051
:1000EE000A93AA9800E0083008F019C0EA81E1707E
:1000FE00E13009F002C0E1E001C0E0E0F4D2A5B3C6
:10010E00A3F9A5BB8BE08A95F1F7AA9A8BE08A95A5
:10011E00F1F7AA98EA81E695EA830F5FE4CFE981C9
:10012E00E2D2A5B3A0F9A5BB73D1A99A71D1A998B2
:10013E00088123960895A981A13009F004C0A881F1
:10014E00A0586AD118C0A981A23009F004C0A881B4
:10015E00A05462D110C0A981A33009F004C0A881B7
:10016E00A0575AD108C0A981A43009F004C0A881B3
:10017E00A05352D100C02296089554D158D147D2DF
:10018E0008955AD15ED1E4EFF1E060D15AD180E208
:10019E009EE40197F1F755D15CD1E8E35FD1E8E039
:1001AE005DD140D156D1ECE059D1E6E057D108955A
:1001BE00EC81EA93EB8157D158D1E491E03009F408
:1001CE0006C056D13197E49158D122D1F5CF26965B
:1001DE000895A881AA3008F004C0E881E05D219658
:1001EE000895E881E95C2196089521960895E3E04B
:1001FE00E1BBEDEFE2BBEFECE4BBEFEFE5BBE7BB42
:10020E00EDEBE8BB0895E3E3E9B9E0E0E0BDE0E83B
:10021E00EBB9E8E9EAB9E6E8E0BD0895E881ECB9A2
:10022E00219608952ED1E0E0F0E160E070E037D144
:10023E0049D1E0E0F1E060E070E031D143D14FD13F
:10024E002ED140D14CD123D2EA93C3DF4DD150D120
:10025E0028960895F42DE0E0DF01ECB1F0E0EA0F0E
:10026E00FB1F2F01689420F8E2E0EA93EBE0FBD04D
:10027E00F2016627772732D2D5DF189502D13ED10B
:10028E0028960895FED0E8EEF3E060E070E03DD1F0
:10029E0019D1E4E6F0E060E070E037D113D1EAE086
:1002AE00F0E060E070E031D10DD128D128960895AC
:1002BE00EF93FF93EFB7EF93EF91EFBFFF91EF91B6
:1002CE001895EF93FF93EFB7EF93EF91EFBFFF9179
:1002DE00EF91189522978BDF96DF53DF1AD11FD13E
:1002EE0023D127D12BD12FD131D130D1E6E2F0E07D
:1002FE0032D19DD02BD1E7E3F0E02DD1E3E0F0E059
:10030E00FA93EA9323D1E8E4F0E025D1E4E0F0E0BB
:10031E00FA93EA931BD1E9E5F0E01DD18DD0F9D027
:10032E00FED002D106D10AD10ED127DF0FD10ED1C8
:10033E00EBE6F0E010D17BD009D1ECE7F0E00BD189
:10034E00C79840E050E0E0E0E883E98307D1E1E0C0
:10035E008AD0E0E08599E1E004D1E3E084D0E0E0EA
:10036E008699E1E0FED0E5E07ED0E0E08799E1E01D
:10037E00F8D0E7E078D0E0E08399E1E0B5D0AED1F7
:10038E007DDF4F5F5F4F453FE1E05E0708F411C030
:10039E0040E050E06DD0E4E0EA93E1E064D065D057
:1003AE00662777279BD16EDFC79902C0C79A01C017
:1003BE00C798A881B981159708F41DC0E0E085990A
:1003CE00E1E0E05D0E2FE0E08699E1E0E05D1E2FBA
:1003DE00E0E08799E1E0E05D2E2FE0E08399E1E037
:1003EE00E05D3E2F96D09BD09FD0A3D0A7D0ABD0B0
:1003FE00E0E0E883E983AACF2296FFCF5F9BFECF92
:10040E00ECB108955D9BFECFE881ECB9219608957D
:10041E008BE68A95F1F70895A150AA93E0E0EA934E
:10042E005FDEF6CFE1E0EA93E0E0EA9359CEE2E058
:10043E00F0E0FA93EA930895E8EEF3E0FA93EA9384
:10044E00E6C0E0E3EA93E0E0EA934ACEFA93EA9359
:10045E00DEC080E49FE10197F1F70895EA93E0E0B2
:10046E00EA933EDEF6CFEA9366CEE881F9810895EF
:10047E00FCDF3196E883F9830895EA93E1E0EA938D
:10048E002FCE2497EC81FD816E817F81E883F983E5
:10049E006A837B83A881B9818A819B810895F2D07A
:1004AE00DF01CB01E0E1F0E060E070E0F0D0EA9334
:1004BE0090DEFF2766277727E883F9836A837B839D
:1004CE00E881DBCFEC81FD816E817F81E883F9834A
:1004DE006A837B83A881B9818A819B810895E0E13B
:1004EE00F0E060E070E00895FF2766277727089513
:1004FE00E883F9836A837B83E881BFCFEAE0F0E08B
:10050E0060E070E0C4D0E063F3CFBCD0DF01CB017C
:10051E00F5CFEAE2EA9382DEE4E6F0E097CF0A93C3
:10052E007DDEE4E6F0E092CF1A9378DEE4E6F0E0CA
:10053E008DCF2A9373DEE4E6F0E088CF3A936EDE39
:10054E00E4E6F0E083CFE3E2EA9368CEE1E0F0E0A8
:10055E00FA93EA930895FA93EA932ACEE3E0EA93A4
:10056E000895C2DFBBD08ADEF9CFC798C298BF9A72
:10057E00BA9815C0BA98BF98EE270000B29B08959E
:10058E00B79B089504D0BA9A02D0BF9AE1E06DE00D
:10059E0007C0BA9ABF9A03D0BF98F9DFBA986BE139
:1005AE006A95F1F7089578E0BF98F1DFB79BFECF1B
:1005BE00EEDF8894B2990894BF9AF1DFEE1F7A9518
:1005CE0099F77991772311F4BA9801C0BA9ADFDFBF
:1005DE00BF98E5DFBF9ADBDFBA98D9CFE99178E013
:1005EE00EE0F10F4BA9801C0BA9AD9DFBF98CFDFD8
:1005FE00B79BFECFCCDFBF9A7A9591F7BA98C7DF3B
:10060E00BF98CDDFE1E0B299EE27BF9A0895E99148
:10061E00F991309639F080ED97E00197F1F7A895B2
:10062E003197C9F70895E095F09560957095EF5F55
:10063E00FF4F6F4F7F4F08953F934F935F9300246B
:10064E0011243327442750E2AA0FBB1F881F991F7E
:10065E00001C111C331F441F0E1A1F0A360B470BAA
:10066E0028F40E0E1F1E361F471F01C0A1605A959B
:10067E0059F7FD01BC01D001832F942F5F914F914B
:10068E003F91089518D0D8DF0EF4CDDF0895E89489
:10069E0097FF09C0A095B09580959095AF5FBF4F1D
:1006AE008F4F9F4F689477FDBEDFC6DFFD01BC0103
:1006BE000EF4B9DF0895E89477FF02C0B4DF6894B2
:1006CE0097FF0BC00024A095B0958095909511963C
:1006DE00801D901D00F8039400FA08957A936A9392
:1006EE00FA93EA930895E8940024E011689408952B
:00000001FF
